:100000001DC02CC0D7C52AC029C028C027C026C003
:1000100025C0A4C523C022C021C020C01FC01EC04F
:100020001DC074617065636172742076312E302E4C
:10003000302077323571666C6173680011241FBE01
:10004000CFE5D1E0DEBFCDBF20E0A0E6B0E001C04B
:100050001D92A03CB207E1F7EBD53FC7D1CF00001E
:1000600000002A95F1F70895F894D79A0CD0D79804
:10007000DF9878940895F894DF9AD79A04D0DF989F
:10008000D79A78940895C89922C0CB9BFCCF25E0DD
:10009000E6DF9BB385FB97F9D39A84FB93F99BBB6F
:1000A00024E1DFDF87FB97F986FB93F99BBB24E113
:1000B000D8DF81FB97F980FB93F99BBB24E1D1DF6B
:1000C00083FB97F982FB93F99BBB28E1C9DFD398A7
:1000D000DB9821E0C4DFC8990895CB99FCCF08953F
:1000E0008BB384648BBBDC988AB384638ABB8AE15C
:1000F0008DB908958FB980E1689A8150E9F78FB181
:1001000008957894089514BE88E10FB6F89481BDDF
:1001100011BC0FBE0895D79898E080E029B3C89924
:100120001DC023FFFBCF221F2227221F880F822BF7
:10013000CB9B02C0C89BFCCF915081F7CF9905C0E3
:10014000C89BFCCF0BC0C89909C0CF99FCCF9AE1DE
:100150009A95F1F700C0D79A90E008958FEF9FEF3E
:100160000895CF93DF93EC01D6DF97FD03C088831A
:1001700080E001C081E0DF91CF910895CF93DF93BC
:10018000EC01C9DF97FF02C081E00FC09927998376
:100190008883C1DF97FDF8CF982F88272881398180
:1001A000282B392B3983288380E0DF91CF91089564
:1001B000CF93DF93EC01AFDF97FF02C081E02EC049
:1001C0009927AA2797FDA09588839983AA83A3DFFF
:1001D00097FDF4CFAA2797FDA095A92F982F8827E0
:1001E000AA27288139814A81282B392B4A2B288339
:1001F00039834A8390DF97FDE1CF9927AA2797FD9E
:10020000A095A82F99278827288139814A81282BF2
:10021000392B4A2B288339834A8380E0DF91CF91A1
:100220000895D798CB9902C0C89BFCCFC8991DC030
:1002300098E0C89912C0CB9B02C0C89BFCCF87FF37
:1002400002C0D79801C0D79A880FCB9902C0C89B2B
:10025000FCCF915071F780E004C081E002C0C899E2
:1002600002C0CB99FCCFD79A089581E00895CF932F
:10027000DF931F92CDB7DEB79983D3DF99818111C8
:1002800005C0892F0F90DF91CF91CBCF0F90DF91D9
:10029000CF910895BF92CF92DF92EF92FF920F938A
:1002A0001F93CF93DF93CDB7DEB768970FB6F8945F
:1002B000DEBF0FBECDBF13BED99AD798C89902C072
:1002C000CB9BFCCFC899B3C283E083BFC89902C05F
:1002D000CB99FCCFC899ABC213BEBA9AC298D99A2F
:1002E000C899A2C28091BE0080FF04C08FE499DF4C
:1002F0008BE497DFCE01479634DF811195C2809160
:10030000BE0082FF04C08F8968E090E077D58F89B6
:10031000803209F49FC120F5813109F4A8C088F426
:10032000823009F459C030F4813009F07DC202E214
:1003300010E043C0833009F462C0803109F467C023
:1003400073C2843109F402C120F4823109F4BFC0C0
:100350006BC2853109F41CC1863109F429C164C21C
:10036000813309F4E9C170F4823209F4A3C108F4BD
:1003700080C1833209F4B0C1803309F055C2BA9804
:10038000C29A4FC2833309F4E0C108F4D8C1803463
:1003900009F4DFC1813409F047C210E0FCC18FE9E4
:1003A000890F8A3198F49052892F988F3ADF988D6F
:1003B000811137C2992309F434C2F8010F5F1F4F2E
:1003C00095918FEB890F8A3150F704C08FE3890F25
:1003D0008A3150F79058E8CF80E023DF811121C2A5
:1003E00020DF81111EC280E21CDF81111AC280E071
:1003F00091E03DDF811115C280E190E0A4C180E071
:1004000090E035DF81110DC280E090E09CC1CE010B
:100410000196CEDE811105C2CE014196AFDE81117B
:1004200000C269817A818B8129893A896B01E82E22
:10043000C20ED31EE11C9AD289819A81AB818C15A0
:100440009D05AE0509F4ECC19C014A2F2F5F3F4F7B
:100450004F4F29833A834B8381E02C153D054E0590
:1004600009F080E091D2DDDE882331F3D9C1CE01DD
:1004700001969EDE8111D5C1CE0141967FDE8111AC
:10048000D0C169817A818B8129893A896B01E82EF3
:10049000C20ED31EE11C6AD289819A81AB818C1570
:1004A0009D05AE0509F4BCC19C014A2F2F5F3F4F4B
:1004B0004F4F29833A834B8381E02C153D054E0530
:1004C00009F080E061D2C899ABC1D5DDE5CFCE019E
:1004D00001966EDE8111A5C1CE0141964FDE8111DC
:1004E000A0C189899A89C980DA80EB80C80ED91E9B
:1004F000E11C10E089819A81AB818C159D05AE05C8
:1005000009F48FC1CE0144962CDE81118AC11111EC
:1005100004C069817A818B813AD28C8947D28981E2
:100520009A81AB810196A11D89839A83AB8388232D
:1005300021F08C159D05AE0539F439D239D2C89910
:1005400070C18111FBCFD5CF11E0D4CFCE01019680
:100550002FDE811166C189819A81AB818827992715
:1005600089839A83AB8310E169817A818B8132D24E
:100570001FD2882311F0C89BFBCF89819A81AB8160
:10058000905FAF4F89839A83AB83115069F749C15C
:10059000CE0101960DDE811144C169817A818B8182
:1005A00019D206D2882309F43CC1C89BFACF39C1BD
:1005B000CE014496FDDD811134C1CE014196F8DDB6
:1005C00081112FC16C897D898E89D0D1CC24CA94A8
:1005D000DC2C760189899A89AB89892B8A2B41F198
:1005E0008E010F5F1F4FB12C89899A89AB89892BA6
:1005F0008A2B99F080E0C8D1C89912C1F801819383
:100600008F01B39489899A89AB890197A109898B54
:100610009A8BAB8BF0E1BF12E7CF2B2D30E0AE0110
:100620004F5F5F4FC701B6013FD16B017C01D2CF55
:10063000ADD140E250E0C701B60109D16B017C01A8
:10064000C094D094E094F094C60111DE8111E9C009
:10065000C70179C000E010E0C801885E9F4F11D447
:10066000E0DD8111DEC00F5F1F4F0B3A1105A1F7CE
:10067000D8C082E190E00DD4FADD8111D2C084E1CE
:1006800090E007D4F4DD8111CCC086E190E001D484
:10069000EEDD8111C6C000E010E0C8018E5F9F4F03
:1006A000F0D3BFDD8111BDC00F5F1F4F00311105B9
:1006B000A1F7B7C000E010E0CE01019652DD811134
:1006C000B0C06981C801885E9F4FE7D30F5F1F4F9D
:1006D0000B3A110589F7A5C0CE0101964FDD8111B6
:1006E000A0C069817A8182E190E0E5D3CE010196D4
:1006F00045DD811196C069817A8184E190E0DBD388
:10070000CE0101963BDD81118CC069817A8186E141
:1007100090E0D1D300E010E0CE01419622DD8111BE
:1007200080C06989C8018E5F9F4FB7D30F5F1F4F8D
:100730000031110589F775C0BA9AC29872C08091CC
:10074000BE009091BF0093DD6CC08EEB90E016DD93
:1007500068C084E790E02CDD811163C082E790E0FF
:100760000DDD81115EC081E790E0FBDC811159C095
:1007700080917100813118F080E18093710080E7F1
:1007800090E0EFDC4EC0812F90E0805A9F4FE9DC73
:10079000811147C01F5F809171001817A0F360910D
:1007A00074007091750080917600E0D000E010E058
:1007B00080917200909173000817190778F5E12C69
:1007C000F12C80917100E81668F480E0DDD0EE2D08
:1007D000F0E0E05AFF4F9081981711F0FF24F39456
:1007E000E394EFCFFF2011F0E12C0AC080E019DD87
:1007F0008823D1F315C080E0C7D0FF2031F0E39407
:1008000080917000E816B8F304C00BDD8823B9F3BB
:1008100007C00F5F1F4FF110CBCF02C081E001DD99
:10082000B5D01FBA1EBA5CCDD798BA98C29A68964E
:100830000FB6F894DEBF0FBECDBFDF91CF911F91F1
:100840000F91FF90EF90DF90CF90BF900895CF92DF
:10085000DF92EF92FF920F931F938B019C016170C7
:10086000772788279927E1E0F0E0E417F507A8F457
:100870003695279517950795660F771F881F991F3F
:1008800068017901A1E0CA22DD24EE24FF246C294D
:100890007D298E299F293196E8CF1F910F91FF90D6
:1008A000EF90DF90CF900895AF92BF92CF92DF92FA
:1008B000EF92FF920F931F93CF93DF93FA01240FD0
:1008C000351FAA24A394E217F30761F1C19149E00F
:1008D00050E0A1E0B0E0D0E0415051094115510590
:1008E00091F36B017C01CC24F7FCC394DD24EE244E
:1008F000FF24BC2C8D010C231D23012B11F0BA2CDD
:10090000BC24660F771F881F991FBB2041F017EB8F
:1009100061271DE1712711EC812714E09127AA0FAF
:10092000BB1FDACFDF91CF911F910F91FF90EF9016
:10093000DF90CF90BF90AF900895CF93DF9300D01A
:10094000CDB7DEB76A837983D5DB7981872FD2DB98
:100950006A81862F0F900F90DF91CF91CBCBDA9ADF
:100960000895DA9886E0C6DBFACFBACBCF92DF9251
:10097000EF926B01E82EDA9883E0BCDB8E2DB60196
:10098000EF90DF90CF90D9CF8FEFB4CBE8CFCF925D
:10099000DF92EF926B01E82EE4DFDA9882E0AADBC7
:1009A0008E2DB601EF90DF90CF90C7CFA3CBD7CFDE
:1009B000CF93DF931F92CDB7DEB7DA9885E09ADB4D
:1009C0008FEF98DB8983CBDF898181700F90DF9176
:1009D000CF910895CF92DF92EF926B01E82EC1DFA5
:1009E000DA9880E287DB8E2DB601A7DFEF90DF90EB
:1009F000CF90B5CF90917C009F5F9F7320917D0039
:100A0000921304C0209179002223C1F3E92FF0E072
:100A1000E258FF4F808390937C0008950F931F93BB
:100A2000CF93DF938C01C0E0D0E0C017D10721F055
:100A300087E1E0DF2196F9CFDF91CF911F910F91F0
:100A40000895A895C89907C0BA98C29A0DDBBA9ABA
:100A5000C29880E0089581E008950F931F93CF938B
:100A6000DF93C82F8AE2C6DF80E2C4DF18E0D1E05E
:100A700001E0C0FF06C080E2BDDF87E1BBDFD02719
:100A800004C087E1B7DF80E2B5DFC695115089F772
:100A9000DD2321F080E2AEDF87E103C087E1AADF3A
:100AA00080E2DF91CF911F910F91A4CF81E5D5DF37
:100AB00083E0D3DF82E5D1CF1F93CF93DF93EC01A7
:100AC00019E8812FCADF11501038D9F7FE010995B6
:100AD0008AE290DF8CE390E0A1DF19E0812FBDDF97
:100AE0001150E1F7FE0109958AE284DF8CE390E082
:100AF000DF91CF911F9192CF0F931F93CF93DF93ED
:100B000083E0ABDF82E0A9DF83E0A7DF84E0A5DF3D
:100B100083E0A3DFC0E0D0E015E0CE018E5F9F4F01
:100B2000B0D1082F9ADF10272196C031D105A9F73F
:100B300088E190E0EC012196A4D1082F8EDF1027E8
:100B400080E0C33CD80711F0CE01F4CF1FBA1EBA23
:100B5000812FDF91CF911F910F917FCF1F920F9225
:100B60000FB60F9211248F939F93EF93FF93809171
:100B70007700882311F0D9980EC0D99AE0917D00B2
:100B8000F0E0E258FF4F908180917D008F5F8F737E
:100B900080937D0096BF8091770091E089278093B4
:100BA0007700FF91EF919F918F910F900FBE0F9063
:100BB0001F9018951F920F920FB60F9211242F932A
:100BC0003F934F938F939F93C89B27C023E023BFEE
:100BD00020917A0030917B0049B343FB882780F94C
:100BE00090E0220F331F822B932B90937B008093F6
:100BF0007A0080917A0090917B0085369A4C11F4AE
:100C000081E008C080917A0090917B00823E9C4FE9
:100C100029F482E08093790001C013BE9F918F91E7
:100C20004F913F912F910F900FBE0F901F901895ED
:100C3000CF93DF931F92CDB7DEB765DADB98D398F9
:100C4000D998D19AD89AD098DF98D79AC29ABA9858
:100C500081E082BB8BB780618BBF8AB780618ABF1E
:100C600084DE8FEF86BF82E080BF89BF4ADA83E0EF
:100C700083BF58E1C52ED12C6CE0A62E78E1972ECB
:100C8000E3E0BE2E1092790010927B0010927A0061
:100C90008CED95E0C3DE8CE795E00EDF8CED95E002
:100CA000BDDE86E595E008DF90917C00C89B04C01E
:100CB00080917D009813FACF40E450E067E170E046
:100CC0008EE790E0D7D0D79888ECEFECF7E031973B
:100CD000F1F700C0000090917900911102C081509D
:100CE000A1F78091BE0081FF06C080917A009091AB
:100CF0007B0060E183D080917900813059F08230AF
:100D000009F077C0EFECF7E03197F1F700C0000091
:100D1000C1DA6FC0FFEF20E782E0F1502040804051
:100D2000E1F700C00000BA9AC29813BE1092780092
:100D30000FB6F894A895C1BC0FBEA1BC82E190E0AB
:100D4000A8D08C0184E190E0A4D03C0186E190E041
:100D5000A0D0E82E1FBA1EBAA895B80180E09983EA
:100D600005DEA89580E010DE082F80E00DDEF82E6D
:100D7000A8958E2D66DE9981882391F0BA98C29A43
:100D800005DE0FB6F89491BC11BC0FBE9FEFE1EEEB
:100D9000F4E09150E040F040E1F700C0000029C0CD
:100DA000892F4FDE8111EACF10E01F2922E0621A5D
:100DB00071087801E60CF71C8E2D43DE8111DECF21
:100DC0008F2D3FDE8111DACF802F3BDE8111D6CF10
:100DD000812F37DE8111D2CF6114710479F281E065
:100DE000681A710881E06114710409F080E0CCDDBB
:100DF000F0CFD79AC89B46CFB3BE44CFBA98C29A19
:100E00002FEF31EE44E0215030404040E1F700C088
:100E10000000615041E050E06F3F59F1BA9AC2982A
:100E20009A01062E02C0220F331F0A94E2F72823EC
:100E30003923232B41F07FEF25EA3EE0715020401B
:100E40003040E1F707C07FEF21EE34E071502040E1
:100E50003040E1F700C00000BA98C29A7FEF21EE5F
:100E600034E0715020403040E1F700C00000615094
:100E7000D3CF0895DC0101C06D9341505040E0F79D
:100E80000895E199FECF1FBA8EBBE09A99278DB3E2
:100E90000895A8E1B0E042E013C0262FE199FECF0B
:100EA0001CBA1FBA8EBB2DBB0FB6F894E29AE19A1A
:100EB0000FBE01960895F1DF272FF0CFDC01862FBA
:100EC000E82FE199FECF1FBA05C0EEBBE09AE3958B
:0E0ED0000DB20D924150C8F70895F894FFCF6F
:00000001FF
